{
  "contractName": "BatPay",
  "abi": [
    {
      "constant": true,
      "inputs": [
        {
          "name": "",
          "type": "uint256"
        }
      ],
      "name": "bulkRegistrations",
      "outputs": [
        {
          "name": "rootHash",
          "type": "bytes32"
        },
        {
          "name": "n",
          "type": "uint32"
        },
        {
          "name": "minId",
          "type": "uint32"
        }
      ],
      "payable": false,
      "stateMutability": "view",
      "type": "function"
    },
    {
      "constant": true,
      "inputs": [],
      "name": "challengeStepBlocks",
      "outputs": [
        {
          "name": "",
          "type": "uint256"
        }
      ],
      "payable": false,
      "stateMutability": "view",
      "type": "function"
    },
    {
      "constant": true,
      "inputs": [],
      "name": "challengeBond",
      "outputs": [
        {
          "name": "",
          "type": "uint64"
        }
      ],
      "payable": false,
      "stateMutability": "view",
      "type": "function"
    },
    {
      "constant": true,
      "inputs": [],
      "name": "instantSlot",
      "outputs": [
        {
          "name": "",
          "type": "uint32"
        }
      ],
      "payable": false,
      "stateMutability": "view",
      "type": "function"
    },
    {
      "constant": true,
      "inputs": [],
      "name": "maxBalance",
      "outputs": [
        {
          "name": "",
          "type": "uint256"
        }
      ],
      "payable": false,
      "stateMutability": "view",
      "type": "function"
    },
    {
      "constant": true,
      "inputs": [],
      "name": "maxAccount",
      "outputs": [
        {
          "name": "",
          "type": "uint256"
        }
      ],
      "payable": false,
      "stateMutability": "view",
      "type": "function"
    },
    {
      "constant": true,
      "inputs": [],
      "name": "maxCollect",
      "outputs": [
        {
          "name": "",
          "type": "uint256"
        }
      ],
      "payable": false,
      "stateMutability": "view",
      "type": "function"
    },
    {
      "constant": true,
      "inputs": [
        {
          "name": "",
          "type": "uint256"
        }
      ],
      "name": "payments",
      "outputs": [
        {
          "name": "from",
          "type": "uint32"
        },
        {
          "name": "amount",
          "type": "uint64"
        },
        {
          "name": "fee",
          "type": "uint64"
        },
        {
          "name": "minId",
          "type": "uint32"
        },
        {
          "name": "maxId",
          "type": "uint32"
        },
        {
          "name": "totalCount",
          "type": "uint32"
        },
        {
          "name": "block",
          "type": "uint64"
        },
        {
          "name": "hash",
          "type": "bytes32"
        },
        {
          "name": "lock",
          "type": "bytes32"
        },
        {
          "name": "metadata",
          "type": "bytes32"
        }
      ],
      "payable": false,
      "stateMutability": "view",
      "type": "function"
    },
    {
      "constant": true,
      "inputs": [],
      "name": "owner",
      "outputs": [
        {
          "name": "",
          "type": "address"
        }
      ],
      "payable": false,
      "stateMutability": "view",
      "type": "function"
    },
    {
      "constant": true,
      "inputs": [],
      "name": "challengeBlocks",
      "outputs": [
        {
          "name": "",
          "type": "uint256"
        }
      ],
      "payable": false,
      "stateMutability": "view",
      "type": "function"
    },
    {
      "constant": true,
      "inputs": [],
      "name": "unlockBlocks",
      "outputs": [
        {
          "name": "",
          "type": "uint256"
        }
      ],
      "payable": false,
      "stateMutability": "view",
      "type": "function"
    },
    {
      "constant": true,
      "inputs": [],
      "name": "collectBond",
      "outputs": [
        {
          "name": "",
          "type": "uint64"
        }
      ],
      "payable": false,
      "stateMutability": "view",
      "type": "function"
    },
    {
      "constant": true,
      "inputs": [],
      "name": "maxBulk",
      "outputs": [
        {
          "name": "",
          "type": "uint256"
        }
      ],
      "payable": false,
      "stateMutability": "view",
      "type": "function"
    },
    {
      "constant": true,
      "inputs": [],
      "name": "newAccount",
      "outputs": [
        {
          "name": "",
          "type": "uint256"
        }
      ],
      "payable": false,
      "stateMutability": "view",
      "type": "function"
    },
    {
      "constant": true,
      "inputs": [],
      "name": "maxTransfer",
      "outputs": [
        {
          "name": "",
          "type": "uint256"
        }
      ],
      "payable": false,
      "stateMutability": "view",
      "type": "function"
    },
    {
      "constant": true,
      "inputs": [
        {
          "name": "",
          "type": "uint256"
        }
      ],
      "name": "accounts",
      "outputs": [
        {
          "name": "addr",
          "type": "address"
        },
        {
          "name": "balance",
          "type": "uint64"
        },
        {
          "name": "collected",
          "type": "uint32"
        }
      ],
      "payable": false,
      "stateMutability": "view",
      "type": "function"
    },
    {
      "constant": true,
      "inputs": [],
      "name": "token",
      "outputs": [
        {
          "name": "",
          "type": "address"
        }
      ],
      "payable": false,
      "stateMutability": "view",
      "type": "function"
    },
    {
      "inputs": [
        {
          "name": "_token",
          "type": "address"
        }
      ],
      "payable": false,
      "stateMutability": "nonpayable",
      "type": "constructor"
    },
    {
      "constant": true,
      "inputs": [
        {
          "name": "id",
          "type": "uint256"
        }
      ],
      "name": "isValidId",
      "outputs": [
        {
          "name": "",
          "type": "bool"
        }
      ],
      "payable": false,
      "stateMutability": "view",
      "type": "function"
    },
    {
      "constant": true,
      "inputs": [
        {
          "name": "id",
          "type": "uint256"
        }
      ],
      "name": "isOwnerId",
      "outputs": [
        {
          "name": "",
          "type": "bool"
        }
      ],
      "payable": false,
      "stateMutability": "view",
      "type": "function"
    },
    {
      "constant": false,
      "inputs": [
        {
          "name": "n",
          "type": "uint256"
        },
        {
          "name": "rootHash",
          "type": "bytes32"
        }
      ],
      "name": "bulkRegister",
      "outputs": [],
      "payable": false,
      "stateMutability": "nonpayable",
      "type": "function"
    },
    {
      "constant": false,
      "inputs": [
        {
          "name": "addr",
          "type": "address"
        },
        {
          "name": "proof",
          "type": "uint256[]"
        },
        {
          "name": "id",
          "type": "uint256"
        },
        {
          "name": "bulkId",
          "type": "uint256"
        }
      ],
      "name": "claimId",
      "outputs": [
        {
          "name": "",
          "type": "bool"
        }
      ],
      "payable": false,
      "stateMutability": "nonpayable",
      "type": "function"
    },
    {
      "constant": false,
      "inputs": [],
      "name": "register",
      "outputs": [
        {
          "name": "ret",
          "type": "uint32"
        }
      ],
      "payable": false,
      "stateMutability": "nonpayable",
      "type": "function"
    },
    {
      "constant": false,
      "inputs": [
        {
          "name": "amount",
          "type": "uint64"
        },
        {
          "name": "id",
          "type": "uint256"
        }
      ],
      "name": "withdraw",
      "outputs": [],
      "payable": false,
      "stateMutability": "nonpayable",
      "type": "function"
    },
    {
      "constant": false,
      "inputs": [
        {
          "name": "amount",
          "type": "uint64"
        },
        {
          "name": "id",
          "type": "uint256"
        }
      ],
      "name": "deposit",
      "outputs": [],
      "payable": false,
      "stateMutability": "nonpayable",
      "type": "function"
    },
    {
      "constant": false,
      "inputs": [
        {
          "name": "fromId",
          "type": "uint32"
        },
        {
          "name": "amount",
          "type": "uint64"
        },
        {
          "name": "fee",
          "type": "uint64"
        },
        {
          "name": "payData",
          "type": "bytes"
        },
        {
          "name": "newCount",
          "type": "uint256"
        },
        {
          "name": "roothash",
          "type": "bytes32"
        },
        {
          "name": "lock",
          "type": "bytes32"
        },
        {
          "name": "metadata",
          "type": "bytes32"
        }
      ],
      "name": "transfer",
      "outputs": [],
      "payable": false,
      "stateMutability": "nonpayable",
      "type": "function"
    },
    {
      "constant": false,
      "inputs": [
        {
          "name": "payId",
          "type": "uint32"
        },
        {
          "name": "unlockerId",
          "type": "uint32"
        },
        {
          "name": "key",
          "type": "bytes"
        }
      ],
      "name": "unlock",
      "outputs": [
        {
          "name": "",
          "type": "bool"
        }
      ],
      "payable": false,
      "stateMutability": "nonpayable",
      "type": "function"
    },
    {
      "constant": false,
      "inputs": [
        {
          "name": "payId",
          "type": "uint256"
        }
      ],
      "name": "refund",
      "outputs": [
        {
          "name": "",
          "type": "bool"
        }
      ],
      "payable": false,
      "stateMutability": "nonpayable",
      "type": "function"
    },
    {
      "constant": true,
      "inputs": [
        {
          "name": "data",
          "type": "bytes"
        }
      ],
      "name": "getDataSum",
      "outputs": [
        {
          "name": "sum",
          "type": "uint256"
        }
      ],
      "payable": false,
      "stateMutability": "pure",
      "type": "function"
    },
    {
      "constant": true,
      "inputs": [
        {
          "name": "data",
          "type": "bytes"
        },
        {
          "name": "index",
          "type": "uint256"
        }
      ],
      "name": "getDataAtIndex",
      "outputs": [
        {
          "name": "amount",
          "type": "uint64"
        },
        {
          "name": "payId",
          "type": "uint32"
        }
      ],
      "payable": false,
      "stateMutability": "pure",
      "type": "function"
    },
    {
      "constant": false,
      "inputs": [
        {
          "name": "delegate",
          "type": "uint32"
        },
        {
          "name": "slot",
          "type": "uint32"
        },
        {
          "name": "challenger",
          "type": "uint32"
        }
      ],
      "name": "challenge_1",
      "outputs": [],
      "payable": false,
      "stateMutability": "nonpayable",
      "type": "function"
    },
    {
      "constant": false,
      "inputs": [
        {
          "name": "delegate",
          "type": "uint32"
        },
        {
          "name": "slot",
          "type": "uint32"
        },
        {
          "name": "data",
          "type": "bytes"
        }
      ],
      "name": "challenge_2",
      "outputs": [],
      "payable": false,
      "stateMutability": "nonpayable",
      "type": "function"
    },
    {
      "constant": false,
      "inputs": [
        {
          "name": "delegate",
          "type": "uint32"
        },
        {
          "name": "slot",
          "type": "uint32"
        },
        {
          "name": "data",
          "type": "bytes"
        },
        {
          "name": "index",
          "type": "uint32"
        }
      ],
      "name": "challenge_3",
      "outputs": [],
      "payable": false,
      "stateMutability": "nonpayable",
      "type": "function"
    },
    {
      "constant": false,
      "inputs": [
        {
          "name": "delegate",
          "type": "uint32"
        },
        {
          "name": "slot",
          "type": "uint32"
        },
        {
          "name": "payData",
          "type": "bytes"
        }
      ],
      "name": "challenge_4",
      "outputs": [],
      "payable": false,
      "stateMutability": "nonpayable",
      "type": "function"
    },
    {
      "constant": false,
      "inputs": [
        {
          "name": "delegate",
          "type": "uint32"
        },
        {
          "name": "slot",
          "type": "uint32"
        }
      ],
      "name": "challenge_success",
      "outputs": [],
      "payable": false,
      "stateMutability": "nonpayable",
      "type": "function"
    },
    {
      "constant": false,
      "inputs": [
        {
          "name": "delegate",
          "type": "uint32"
        },
        {
          "name": "slot",
          "type": "uint32"
        }
      ],
      "name": "challenge_failed",
      "outputs": [],
      "payable": false,
      "stateMutability": "nonpayable",
      "type": "function"
    },
    {
      "constant": false,
      "inputs": [
        {
          "name": "delegate",
          "type": "uint32"
        },
        {
          "name": "slot",
          "type": "uint32"
        }
      ],
      "name": "freeSlot",
      "outputs": [],
      "payable": false,
      "stateMutability": "nonpayable",
      "type": "function"
    },
    {
      "constant": false,
      "inputs": [
        {
          "name": "delegate",
          "type": "uint32"
        },
        {
          "name": "slot",
          "type": "uint32"
        },
        {
          "name": "toId",
          "type": "uint32"
        },
        {
          "name": "toPayId",
          "type": "uint32"
        },
        {
          "name": "amount",
          "type": "uint64"
        },
        {
          "name": "fee",
          "type": "uint64"
        },
        {
          "name": "signature",
          "type": "bytes"
        }
      ],
      "name": "collect",
      "outputs": [],
      "payable": false,
      "stateMutability": "nonpayable",
      "type": "function"
    },
    {
      "constant": true,
      "inputs": [
        {
          "name": "id",
          "type": "uint256"
        }
      ],
      "name": "accountOf",
      "outputs": [
        {
          "name": "addr",
          "type": "address"
        },
        {
          "name": "balance",
          "type": "uint64"
        },
        {
          "name": "collected",
          "type": "uint32"
        }
      ],
      "payable": false,
      "stateMutability": "view",
      "type": "function"
    },
    {
      "constant": true,
      "inputs": [
        {
          "name": "id",
          "type": "uint256"
        }
      ],
      "name": "balanceOf",
      "outputs": [
        {
          "name": "",
          "type": "uint64"
        }
      ],
      "payable": false,
      "stateMutability": "view",
      "type": "function"
    },
    {
      "constant": true,
      "inputs": [],
      "name": "accountsLength",
      "outputs": [
        {
          "name": "",
          "type": "uint256"
        }
      ],
      "payable": false,
      "stateMutability": "view",
      "type": "function"
    },
    {
      "constant": true,
      "inputs": [],
      "name": "paymentsLength",
      "outputs": [
        {
          "name": "",
          "type": "uint256"
        }
      ],
      "payable": false,
      "stateMutability": "view",
      "type": "function"
    },
    {
      "constant": true,
      "inputs": [],
      "name": "bulkLength",
      "outputs": [
        {
          "name": "",
          "type": "uint256"
        }
      ],
      "payable": false,
      "stateMutability": "view",
      "type": "function"
    }
  ],
  "bytecode": "0x608060405234801561001057600080fd5b50604051602080620059f983398101604052516001805433600160a060020a03199182161790915560028054909116600160a060020a0390921691909117905561599980620000606000396000f3006080604052600436106101ea5763ffffffff60e060020a60003504166312d403d381146101ef5780631694e2af1461027a5780631a96c519146102b75780631aa3a008146102e3578063259bb39214610311578063278ecde11461039e57806332dbf93a146103b657806334a88a77146104225780633de0085b14610449578063407256b6146104cc57806343387983146105385780634629401f1461055c578063503e1ac8146105c857806352305151146105ec5780635de420461461061d5780636170c4b114610632578063705f09251461065657806371a977451461066b57806373ad468a14610680578063792c8ba81461069557806379c1f6bf1461070157806383c2396c1461071657806387d817891461072b5780638da5cb5b146107af5780638f4e4321146107e05780639096a66b1461082e57806391774928146108525780639b4156ff146108675780639cc7f70814610891578063a5f8ebcb146108a9578063a685a3d7146108be578063aee120d6146105ec578063b5055c4414610917578063bf335e621461092c578063c79c951214610941578063d34e3c8314610965578063ed233ee914610980578063f2a40db814610995578063f85074c2146109ad578063fae5f7fc146109c5578063fc0c546a146109da578063fc6bdb70146109ef575b600080fd5b3480156101fb57600080fd5b50604080516020601f6064356004818101359283018490048402850184019095528184526102789463ffffffff813516946001604060020a03602480358216966044359092169536956084949392019181908401838280828437509497505084359550505060208301359260408101359250606001359050610a63565b005b34801561028657600080fd5b5061029260043561117f565b6040805193845263ffffffff9283166020850152911682820152519081900360600190f35b3480156102c357600080fd5b506102cf6004356111bd565b604080519115158252519081900360200190f35b3480156102ef57600080fd5b506102f86111c4565b6040805163ffffffff9092168252519081900360200190f35b34801561031d57600080fd5b50604080516020601f60c4356004818101359283018490048402850184019095528184526102789463ffffffff813581169560248035831696604435841696606435909416956001604060020a0360843581169660a435909116953695919460e49492930191819084018382808284375094975061130c9650505050505050565b3480156103aa57600080fd5b506102cf600435611ea3565b3480156103c257600080fd5b506040805160206004602480358281013584810280870186019097528086526102cf968435600160a060020a0316963696604495919490910192918291850190849080828437509497505084359550505060209092013591506122079050565b34801561042e57600080fd5b50610437612444565b60408051918252519081900360200190f35b34801561045557600080fd5b506040805160206004803580820135601f81018490048402850184019095528484526104a494369492936024939284019190819084018382808284375094975050933594506124499350505050565b604080516001604060020a03909316835263ffffffff90911660208301528051918290030190f35b3480156104d857600080fd5b50604080516020600460443581810135601f81018490048402850184019095528484526102cf94823563ffffffff908116956024803590921695369594606494929301919081908401838280828437509497506124949650505050505050565b34801561054457600080fd5b506102786001604060020a036004351660243561280c565b34801561056857600080fd5b50604080516020600460443581810135601f810184900484028501840190955284845261027894823563ffffffff90811695602480359092169536959460649492930191908190840183828082843750949750612b7c9650505050505050565b3480156105d457600080fd5b5061027863ffffffff60043581169060243516613114565b3480156105f857600080fd5b50610601612444565b604080516001604060020a039092168252519081900360200190f35b34801561062957600080fd5b50610437613308565b34801561063e57600080fd5b506102786001604060020a036004351660243561330e565b34801561066257600080fd5b506102f8613610565b34801561067757600080fd5b50610437613616565b34801561068c57600080fd5b5061043761361c565b3480156106a157600080fd5b50604080516020600460443581810135601f810184900484028501840190955284845261027894823563ffffffff908116956024803590921695369594606494929301919081908401838280828437509497506136279650505050505050565b34801561070d57600080fd5b50610437613d92565b34801561072257600080fd5b50610437613d9a565b34801561073757600080fd5b50610743600435613da0565b6040805163ffffffff9b8c1681526001604060020a039a8b166020820152988a1689820152968a16606089015294891660808801529290971660a086015290941660c084015260e083019490945261010082019290925261012081019290925251908190036101400190f35b3480156107bb57600080fd5b506107c4613e2d565b60408051600160a060020a039092168252519081900360200190f35b3480156107ec57600080fd5b506107f8600435613e3c565b60408051600160a060020a0390941684526001604060020a03909216602084015263ffffffff1682820152519081900360600190f35b34801561083a57600080fd5b5061027863ffffffff60043581169060243516613f16565b34801561085e57600080fd5b5061043761431a565b34801561087357600080fd5b5061027863ffffffff60043581169060243581169060443516614320565b34801561089d57600080fd5b5061060160043561480d565b3480156108b557600080fd5b506104376148a0565b3480156108ca57600080fd5b506040805160206004803580820135601f81018490048402850184019095528484526104379436949293602493928401919081908401838280828437509497506148a59650505050505050565b34801561092357600080fd5b506104376148f9565b34801561093857600080fd5b50610437614900565b34801561094d57600080fd5b5061027863ffffffff60043581169060243516614906565b34801561097157600080fd5b50610278600435602435614d45565b34801561098c57600080fd5b50610437614f47565b3480156109a157600080fd5b506107f8600435614f4e565b3480156109b957600080fd5b506102cf600435614f95565b3480156109d157600080fd5b50610437614fd3565b3480156109e657600080fd5b506107c4614fd9565b3480156109fb57600080fd5b50604080516020600460443581810135601f810184900484028501840190955284845261027894823563ffffffff908116956024803590921695369594606494929301919081908401838280828437509497505050923563ffffffff169350614fe892505050565b610a6b61581b565b6000610a7561586f565b63ffffffff8b168084526001604060020a03808c1660208601528a811660408601526101008501879052436014011660c085015260035460009110610b04576040805160e560020a62461bcd02815260206004820152600e60248201527f696e76616c69642066726f6d4964000000000000000000000000000000000000604482015290519081900360640190fd5b886001815181101515610b1357fe5b90602001015160f860020a900460f860020a0260f860020a9004925060038c63ffffffff16815481101515610b4457fe5b60009182526020808320604080516060810182529390910154600160a060020a038116845260a060020a81046001604060020a03169284019290925260e060020a90910463ffffffff169082015292508311610bea576040805160e560020a62461bcd02815260206004820152601f60248201527f6279746573207065722049642073686f756c6420626520706f73697469766500604482015290519081900360640190fd5b8151600160a060020a03163314610c4b576040805160e560020a62461bcd02815260206004820152601d60248201527f6f6e6c79206f776e6572206f662069642063616e207472616e73666572000000604482015290519081900360640190fd5b8260028a5103811515610c5a57fe5b0615610cb0576040805160e560020a62461bcd02815260206004820152601960248201527f70617944617461206c656e67746820697320696e76616c696400000000000000604482015290519081900360640190fd5b878360028b5103811515610cc057fe5b040163ffffffff1660a08501819052620186a011610d28576040805160e560020a62461bcd02815260206004820152600f60248201527f746f6f206d616e79207061796565730000000000000000000000000000000000604482015290519081900360640190fd5b898460a0015163ffffffff168c0201905081602001516001604060020a0316816001604060020a031611151515610da9576040805160e560020a62461bcd02815260206004820152601060248201527f6e6f7420656e6f7567682066756e647300000000000000000000000000000000604482015290519081900360640190fd5b6020820180518290036001604060020a031690526003805483919063ffffffff8f16908110610dd457fe5b60009182526020918290208351910180549284015160409094015173ffffffffffffffffffffffffffffffffffffffff19909316600160a060020a039092169190911760008051602061594e8339815191521660a060020a6001604060020a0390941693909302929092177bffffffffffffffffffffffffffffffffffffffffffffffffffffffff1660e060020a63ffffffff928316021790915560035481166060860181905289810190911660808601819052610120860187905210801590610eac575063ffffffff846080015163ffffffff1611155b1515610f02576040805160e560020a62461bcd02815260206004820152601060248201527f696e76616c6964206e6577436f756e7400000000000000000000000000000000604482015290519081900360640190fd5b6000881115610f1557610f158888614d45565b886040516020018082805190602001908083835b60208310610f485780518252601f199092019160209182019101610f29565b6001836020036101000a0380198251168184511680821785525050505050509050019150506040516020818303038152906040526040518082805190602001908083835b60208310610fab5780518252601f199092019160209182019101610f8c565b6001836020036101000a03801982511681845116808217855250505050505090500191505060405180910390208460e0019060001916908160001916815250506005849080600181540180825580915050906001820390600052602060002090600502016000909192909190915060008201518160000160006101000a81548163ffffffff021916908363ffffffff16021790555060208201518160000160046101000a8154816001604060020a0302191690836001604060020a03160217905550604082015181600001600c6101000a8154816001604060020a0302191690836001604060020a0316021790555060608201518160000160146101000a81548163ffffffff021916908363ffffffff16021790555060808201518160000160186101000a81548163ffffffff021916908363ffffffff16021790555060a082015181600001601c6101000a81548163ffffffff021916908363ffffffff16021790555060c08201518160010160006101000a8154816001604060020a0302191690836001604060020a0316021790555060e0820151816002019060001916905561010082015181600301906000191690556101208201518160040190600019169055505050505050505050505050505050565b600480548290811061118d57fe5b60009182526020909120600290910201805460019091015490915063ffffffff8082169164010000000090041683565b6003541190565b60035460009063ffffffff11611224576040805160e560020a62461bcd02815260206004820152601560248201527f6e6f206d6f7265206163636f756e7473206c6566740000000000000000000000604482015290519081900360640190fd5b5060038054906001820190611239908261588f565b5060408051606081018252338152600060208201819052918101919091526003805463ffffffff841690811061126b57fe5b60009182526020918290208351910180549284015160409094015173ffffffffffffffffffffffffffffffffffffffff19909316600160a060020a039092169190911760008051602061594e8339815191521660a060020a6001604060020a0390941693909302929092177bffffffffffffffffffffffffffffffffffffffffffffffffffffffff1660e060020a63ffffffff909216919091021790555b90565b61131461586f565b61131c61586f565b6000806113276158b3565b60035460009063ffffffff8e16106113af576040805160e560020a62461bcd02815260206004820152602360248201527f64656c6567617465206d75737420626520612076616c6964206163636f756e7460448201527f2069640000000000000000000000000000000000000000000000000000000000606482015290519081900360840190fd5b6003805463ffffffff8f169081106113c357fe5b6000918252602091829020604080516060810182529290910154600160a060020a03811680845260a060020a82046001604060020a03169484019490945260e060020a900463ffffffff169082015296501515611490576040805160e560020a62461bcd02815260206004820152603560248201527f6163636f756e7420726567697374726174696f6e2068617320626520746f206360448201527f6f6d706c6574656420666f722064656c65676174650000000000000000000000606482015290519081900360840190fd5b8551600160a060020a03163314611517576040805160e560020a62461bcd02815260206004820152602260248201527f6f6e6c792064656c65676174652063616e20696e69746961746520636f6c6c6560448201527f6374000000000000000000000000000000000000000000000000000000000000606482015290519081900360840190fd5b60035463ffffffff8c161115611577576040805160e560020a62461bcd02815260206004820152601f60248201527f746f4964206d75737420626520612076616c6964206163636f756e7420696400604482015290519081900360640190fd5b6003805463ffffffff8d1690811061158b57fe5b6000918252602091829020604080516060810182529290910154600160a060020a03811680845260a060020a82046001604060020a03169484019490945260e060020a900463ffffffff169082015295501515611658576040805160e560020a62461bcd02815260206004820152602860248201527f6163636f756e7420726567697374726174696f6e2068617320746f206265206360448201527f6f6d706c65746564000000000000000000000000000000000000000000000000606482015290519081900360840190fd5b60008a63ffffffff16118015611676575060055463ffffffff8b1611155b15156116cc576040805160e560020a62461bcd02815260206004820152600f60248201527f696e76616c696420746f50617949640000000000000000000000000000000000604482015290519081900360640190fd5b846040015163ffffffff168a63ffffffff16111515611735576040805160e560020a62461bcd02815260206004820152601c60248201527f746f5061794964206973206e6f7420612076616c69642076616c756500000000604482015290519081900360640190fd5b43600560018c0363ffffffff1681548110151561174e57fe5b60009182526020909120600160059092020101546001604060020a0316106117e6576040805160e560020a62461bcd02815260206004820152602c60248201527f63616e6e6f7420636f6c6c656374207061796d656e747320746861742063616e60448201527f20626520756e6c6f636b65640000000000000000000000000000000000000000606482015290519081900360840190fd5b6001604060020a03808a16908916111561184a576040805160e560020a62461bcd02815260206004820152600e60248201527f66656520697320746f6f20626967000000000000000000000000000000000000604482015290519081900360640190fd5b8c8b86604001518c8c8c604051602001808763ffffffff1663ffffffff1660e060020a0281526004018663ffffffff1663ffffffff1660e060020a0281526004018563ffffffff1663ffffffff1660e060020a0281526004018463ffffffff1663ffffffff1660e060020a028152600401836001604060020a03166001604060020a031660c060020a028152600801826001604060020a03166001604060020a031660c060020a02815260080196505050505050506040516020818303038152906040526040518082805190602001908083835b6020831061193d5780518252601f19909201916020918201910161191e565b6001836020036101000a0380198251168184511680821785525050505050509050019150506040518091039020935061197684886154ad565b8551909350600160a060020a038085169116146119dd576040805160e560020a62461bcd02815260206004820152601260248201527f4261642075736572207369676e61747572650000000000000000000000000000604482015290519081900360640190fd5b6119e78d8d614906565b50604084015163ffffffff90811682528981166020830152606490618000908d1610611a34576001604060020a03808a1660608401526020860180518a8c03908101909216905201611a44565b6001604060020a03881660608301525b60208601516001604060020a0380831691161015611aac576040805160e560020a62461bcd02815260206004820152601060248201527f6e6f7420656e6f7567682066756e647300000000000000000000000000000000604482015290519081900360640190fd5b8086602001818151039150906001604060020a031690816001604060020a0316815250508560038e63ffffffff16815481101515611ae657fe5b9060005260206000200160008201518160000160006101000a815481600160a060020a030219169083600160a060020a0316021790555060208201518160000160146101000a8154816001604060020a0302191690836001604060020a03160217905550604082015181600001601c6101000a81548163ffffffff021916908363ffffffff1602179055509050508882604001906001604060020a031690816001604060020a0316815250508a826080019063ffffffff16908163ffffffff168152505061012c43018260a001906001604060020a031690816001604060020a03168152505060018260c0019060ff16908160ff1681525050816000808f63ffffffff1663ffffffff16815260200190815260200160002060008e63ffffffff1663ffffffff16815260200190815260200160002060008201518160000160006101000a81548163ffffffff021916908363ffffffff16021790555060208201518160000160046101000a81548163ffffffff021916908363ffffffff16021790555060408201518160000160086101000a8154816001604060020a0302191690836001604060020a0316021790555060608201518160000160106101000a8154816001604060020a0302191690836001604060020a0316021790555060808201518160000160186101000a81548163ffffffff021916908363ffffffff16021790555060a08201518160010160006101000a8154816001604060020a0302191690836001604060020a0316021790555060c08201518160010160086101000a81548160ff021916908360ff16021790555060e08201518160010160096101000a81548163ffffffff021916908363ffffffff16021790555061010082015181600101600d6101000a81548163ffffffff021916908363ffffffff1602179055506101208201518160010160116101000a8154816001604060020a0302191690836001604060020a03160217905550610140820151816002019060001916905590505089856040019063ffffffff16908163ffffffff16815250508460038c63ffffffff16815481101515611df757fe5b60009182526020918290208351910180549284015160409094015173ffffffffffffffffffffffffffffffffffffffff19909316600160a060020a039092169190911760008051602061594e8339815191521660a060020a6001604060020a0390941693909302929092177bffffffffffffffffffffffffffffffffffffffffffffffffffffffff1660e060020a63ffffffff9092169190910217905550505050505050505050505050565b60008060008060008060058054905087101515611f0a576040805160e560020a62461bcd02815260206004820152601260248201527f696e76616c6964207061796d656e742049640000000000000000000000000000604482015290519081900360640190fd5b6005805488908110611f1857fe5b60009182526020909120600360059092020101541515611f82576040805160e560020a62461bcd02815260206004820152601b60248201527f7061796d656e7420697320616c726561647920756e6c6f636b65640000000000604482015290519081900360640190fd5b6005805488908110611f9057fe5b60009182526020909120600160059092020101546001604060020a0316431015612004576040805160e560020a62461bcd02815260206004820152601d60248201527f48617368206c6f636b20686173206e6f74206578706972656420796574000000604482015290519081900360640190fd5b600580548890811061201257fe5b600091825260209091206005918202015481546401000000009091046001604060020a031696508890811061204357fe5b6000918252602090912060059182020154815460e060020a90910463ffffffff1695508890811061207057fe5b600091825260208220600590910201546001604060020a036c0100000000000000000000000090910416935063ffffffff8516116120f8576040805160e560020a62461bcd02815260206004820152601860248201527f7061796d656e7420616c726561647920726566756e6465640000000000000000604482015290519081900360640190fd5b6005805463ffffffff86168702850193508890811061211357fe5b60009182526020822060059182020154815463ffffffff90911693508990811061213957fe5b9060005260206000209060050201600001601c6101000a81548163ffffffff021916908363ffffffff160217905550600060058881548110151561217957fe5b9060005260206000209060050201600001600c6101000a8154816001604060020a0302191690836001604060020a03160217905550816003828154811015156121be57fe5b600091825260209091200180546001604060020a0360a060020a80830482169094011690920260008051602061594e833981519152909216919091179055509395945050505050565b60008060008060006004805490508610151561226d576040805160e560020a62461bcd02815260206004820181905260248201527f7468652062756c6b4964207265666572656e63656420697320696e76616c6964604482015290519081900360640190fd5b600480548790811061227b57fe5b906000526020600020906002020160010160049054906101000a900463ffffffff1663ffffffff1693506004868154811015156122b457fe5b60009182526020909120600160029092020101546004805463ffffffff909216945090879081106122e157fe5b906000526020600020906002020160000154915061230988888b600160a060020a0316615683565b905083871015801561231c575082840187105b1515612398576040805160e560020a62461bcd02815260206004820152603b60248201527f74686520696420737065636966696564206973206e6f742070617274206f662060448201527f746861742062756c6b20726567697374726174696f6e20736c6f740000000000606482015290519081900360840190fd5b8082146123ef576040805160e560020a62461bcd02815260206004820152601460248201527f696e76616c6964204d65726b6c652070726f6f66000000000000000000000000604482015290519081900360640190fd5b886003888154811015156123ff57fe5b6000918252602090912001805473ffffffffffffffffffffffffffffffffffffffff1916600160a060020a039290921691909117905550600198975050505050505050565b606481565b81516000908190680100000000000000009064010000000090600c860290600b190181111561247757600080fd5b959095016008810151600c90910151919006959490069392505050565b600554600090819063ffffffff8616106124f8576040805160e560020a62461bcd02815260206004820152600d60248201527f696e76616c696420706179496400000000000000000000000000000000000000604482015290519081900360640190fd5b6125078463ffffffff166111bd565b151561255d576040805160e560020a62461bcd02815260206004820152601260248201527f496e76616c696420756e6c6f636b657249640000000000000000000000000000604482015290519081900360640190fd5b6005805463ffffffff871690811061257157fe5b60009182526020909120600160059092020101546001604060020a031643106125e4576040805160e560020a62461bcd02815260206004820152601160248201527f48617368206c6f636b2065787069726564000000000000000000000000000000604482015290519081900360640190fd5b8383604051602001808363ffffffff1663ffffffff1660e060020a02815260040182805190602001908083835b602083106126305780518252601f199092019160209182019101612611565b6001836020036101000a038019825116818451168082178552505050505050905001925050506040516020818303038152906040526040518082805190602001908083835b602083106126945780518252601f199092019160209182019101612675565b6001836020036101000a0380198251168184511680821785525050505050509050019150506040518091039020905060058563ffffffff168154811015156126d857fe5b60009182526020909120600360059092020101548114612742576040805160e560020a62461bcd02815260206004820152600b60248201527f496e76616c6964206b6579000000000000000000000000000000000000000000604482015290519081900360640190fd5b600580546000919063ffffffff881690811061275a57fe5b9060005260206000209060050201600301816000191690555060058563ffffffff1681548110151561278857fe5b9060005260206000209060050201600001600c9054906101000a90046001604060020a031660038563ffffffff168154811015156127c257fe5b600091825260209091200180546001604060020a0360a060020a80830482169094011690920260008051602061594e83398151915290921691909117905560019150509392505050565b6000808261281981614f95565b1515612895576040805160e560020a62461bcd02815260206004820152602160248201527f4f6e6c79206f776e65722063616e20696e766f6b652074686973206d6574686f60448201527f6400000000000000000000000000000000000000000000000000000000000000606482015290519081900360840190fd5b60038054859081106128a357fe5b60009182526020909120015460038054600160a060020a03909216945090859081106128cb57fe5b60009182526020909120015460a060020a90046001604060020a03169150600160a060020a038316151561296f576040805160e560020a62461bcd02815260206004820152603260248201527f496420726567697374726174696f6e206e6f7420636f6d706c657465642e205560448201527f736520636c61696d496428292066697273740000000000000000000000000000606482015290519081900360840190fd5b6001604060020a0380861690831610156129d3576040805160e560020a62461bcd02815260206004820152601260248201527f696e73756666696369656e742066756e64730000000000000000000000000000604482015290519081900360640190fd5b60006001604060020a03861611612a34576040805160e560020a62461bcd02815260206004820152601860248201527f616d6f756e742073686f756c64206265206e6f6e7a65726f0000000000000000604482015290519081900360640190fd5b33600160a060020a03841614612a94576040805160e560020a62461bcd02815260206004820152601760248201527f6f6e6c79206f776e65722063616e207769746864726177000000000000000000604482015290519081900360640190fd5b848203915081600385815481101515612aa957fe5b6000918252602080832091909101805460008051602061594e8339815191521660a060020a6001604060020a0395861602179055600254604080517fa9059cbb000000000000000000000000000000000000000000000000000000008152600160a060020a038981166004830152958b1660248201529051949091169363a9059cbb93604480840194938390030190829087803b158015612b4957600080fd5b505af1158015612b5d573d6000803e3d6000fd5b505050506040513d6020811015612b7357600080fd5b50505050505050565b612b846158b3565b612b938463ffffffff16614f95565b1515612c0f576040805160e560020a62461bcd02815260206004820152602260248201527f6f6e6c792064656c65676174652063616e2063616c6c206368616c6c656e676560448201527f5f31000000000000000000000000000000000000000000000000000000000000606482015290519081900360840190fd5b5063ffffffff8381166000908152602081815260408083208685168452825291829020825161016081018452815480861682526401000000008104861693820193909352680100000000000000008084046001604060020a0390811695830195909552608060020a84048516606083015260c060020a90930485166080820152600182015480851660a083015292830460ff1660c0820181905269010000000000000000008404861660e0830152606860020a8404909516610100820152608860020a9092049092166101208201526002918201546101408201529114612d40576040805160e560020a62461bcd02815260206004820152601160248201527f77726f6e6720736c6f7420737461747573000000000000000000000000000000604482015290519081900360640190fd5b60a08101516001604060020a03164310612d92576040805160e560020a62461bcd028152602060048201526019602482015260008051602061592e833981519152604482015290519081900360640190fd5b8151600c900615612ded576040805160e560020a62461bcd02815260206004820152601160248201527f77726f6e67206461746120666f726d6174000000000000000000000000000000604482015290519081900360640190fd5b80604001516001604060020a0316612e04836148a5565b14612e7f576040805160e560020a62461bcd02815260206004820152602760248201527f6461746120646f65736e277420726570726573656e7420636f6c6c656374656460448201527f20616d6f756e7400000000000000000000000000000000000000000000000000606482015290519081900360840190fd5b816040518082805190602001908083835b60208310612eaf5780518252601f199092019160209182019101612e90565b6001836020036101000a0380198251168184511680821785525050505050509050019150506040518091039020816101400190600019169081600019168152505060038160c0019060ff16908160ff1681525050606443018160a001906001604060020a031690816001604060020a031681525050806000808663ffffffff1663ffffffff16815260200190815260200160002060008563ffffffff1663ffffffff16815260200190815260200160002060008201518160000160006101000a81548163ffffffff021916908363ffffffff16021790555060208201518160000160046101000a81548163ffffffff021916908363ffffffff16021790555060408201518160000160086101000a8154816001604060020a0302191690836001604060020a0316021790555060608201518160000160106101000a8154816001604060020a0302191690836001604060020a0316021790555060808201518160000160186101000a81548163ffffffff021916908363ffffffff16021790555060a08201518160010160006101000a8154816001604060020a0302191690836001604060020a0316021790555060c08201518160010160086101000a81548160ff021916908360ff16021790555060e08201518160010160096101000a81548163ffffffff021916908363ffffffff16021790555061010082015181600101600d6101000a81548163ffffffff021916908363ffffffff1602179055506101208201518160010160116101000a8154816001604060020a0302191690836001604060020a03160217905550610140820151816002019060001916905590505050505050565b61311c6158b3565b5063ffffffff8281166000908152602081815260408083208585168452825291829020825161016081018452815480861682526401000000008104861693820193909352680100000000000000008084046001604060020a0390811695830195909552608060020a84048516606083015260c060020a90930485166080820152600182015480851660a083015292830460ff1660c0820181905269010000000000000000008404861660e0830152606860020a8404909516610100820152608860020a90920490921661012082015260029182015461014082015291148061320b57508060c0015160ff166004145b801561322457508060a001516001604060020a03164310155b151561327a576040805160e560020a62461bcd02815260206004820152601660248201527f6368616c6c656e6765206e6f742066696e697368656400000000000000000000604482015290519081900360640190fd5b606460038260e0015163ffffffff1681548110151561329557fe5b6000918252602080832090910180546001604060020a0360a060020a80830482169096011690940260008051602061594e8339815191529094169390931790925563ffffffff948516815280825260408082209490951681529290525020600101805468ff000000000000000019169055565b60055490565b6000806000600380549050841080613327575060001984145b151561337d576040805160e560020a62461bcd02815260206004820152600a60248201527f696e76616c696420696400000000000000000000000000000000000000000000604482015290519081900360640190fd5b60006001604060020a038616116133de576040805160e560020a62461bcd02815260206004820152601960248201527f616d6f756e742073686f756c6420626520706f73697469766500000000000000604482015290519081900360640190fd5b600254604080517f23b872dd0000000000000000000000000000000000000000000000000000000081523360048201523060248201526001604060020a03881660448201529051600160a060020a03909216916323b872dd916064808201926020929091908290030181600087803b15801561345957600080fd5b505af115801561346d573d6000803e3d6000fd5b505050506040513d602081101561348357600080fd5b505115156134db576040805160e560020a62461bcd02815260206004820152600f60248201527f7472616e73666572206661696c65640000000000000000000000000000000000604482015290519081900360640190fd5b60001984141561353b576134ed6111c4565b63ffffffff1692508460038481548110151561350557fe5b9060005260206000200160000160146101000a8154816001604060020a0302191690836001604060020a03160217905550613609565b600380548590811061354957fe5b6000918252602090912001546001604060020a0360a060020a90910481169250858301915081168211156135c7576040805160e560020a62461bcd02815260206004820152601360248201527f61726974686d65746963206f766572666c6f7700000000000000000000000000604482015290519081900360640190fd5b806003858154811015156135d757fe5b9060005260206000200160000160146101000a8154816001604060020a0302191690836001604060020a031602179055505b5050505050565b61800081565b60035490565b6001604060020a0381565b61362f6158b3565b61363761581b565b600080600080600061364e8a63ffffffff16614f95565b15156136ca576040805160e560020a62461bcd02815260206004820152602260248201527f6f6e6c792064656c65676174652063616e2063616c6c206368616c6c656e676560448201527f5f33000000000000000000000000000000000000000000000000000000000000606482015290519081900360840190fd5b63ffffffff808b166000908152602081815260408083208d851684528252918290208251610160810184528154808616825264010000000081048616938201939093526001604060020a0368010000000000000000808504821695830195909552608060020a84048116606083015260c060020a90930485166080820152600182015480841660a083015260ff9481049490941660c082015269010000000000000000008404851660e0820152606860020a84049094166101008501819052608860020a90930490911661012084015260020154610140830152600580549299509181106137b457fe5b600091825260209182902060408051610140810182526005909302909101805463ffffffff80821685526001604060020a0364010000000083048116968601969096526c01000000000000000000000000820486169385019390935260a060020a81048316606085015260c060020a81048316608085015260e060020a900490911660a0830152600181015490921660c080830191909152600283015460e0830152600383015461010083015260049283015461012083015289015190975060ff161461388057600080fd5b60a08701516001604060020a031643106138d2576040805160e560020a62461bcd028152602060048201526019602482015260008051602061592e833981519152604482015290519081900360640190fd5b866000015163ffffffff1687610100015163ffffffff161015801561390b5750866020015163ffffffff1687610100015163ffffffff16105b1515613987576040805160e560020a62461bcd02815260206004820152602260248201527f7061796d656e74207265666572656e636564206973206f7574206f662072616e60448201527f6765000000000000000000000000000000000000000000000000000000000000606482015290519081900360840190fd5b60e086015160405189518a9190819060208401908083835b602083106139be5780518252601f19909201916020918201910161399f565b6001836020036101000a038019825116818451168082178552505050505050905001915050604051809103902060001916141515613a46576040805160e560020a62461bcd02815260206004820152601460248201527f7061794461746120697320696e636f7272656374000000000000000000000000604482015290519081900360640190fd5b876001815181101515613a5557fe5b90602001015160f860020a900460f860020a0260f860020a900494508460080260019060020a0293506000925060009150856060015163ffffffff16876080015163ffffffff1610158015613abd5750856080015163ffffffff16876080015163ffffffff16105b15613ad55785602001516001604060020a0316820191505b5060025b8751811015613b1a57838582018901510683019250866080015163ffffffff16831415613b135785602001516001604060020a0316820191505b8401613ad9565b6101208701516001604060020a03168214613b7f576040805160e560020a62461bcd02815260206004820152600f60248201527f616d6f756e74206d69736d617463680000000000000000000000000000000000604482015290519081900360640190fd5b60058760c0019060ff16908160ff1681525050866000808c63ffffffff1663ffffffff16815260200190815260200160002060008b63ffffffff1663ffffffff16815260200190815260200160002060008201518160000160006101000a81548163ffffffff021916908363ffffffff16021790555060208201518160000160046101000a81548163ffffffff021916908363ffffffff16021790555060408201518160000160086101000a8154816001604060020a0302191690836001604060020a0316021790555060608201518160000160106101000a8154816001604060020a0302191690836001604060020a0316021790555060808201518160000160186101000a81548163ffffffff021916908363ffffffff16021790555060a08201518160010160006101000a8154816001604060020a0302191690836001604060020a0316021790555060c08201518160010160086101000a81548160ff021916908360ff16021790555060e08201518160010160096101000a81548163ffffffff021916908363ffffffff16021790555061010082015181600101600d6101000a81548163ffffffff021916908363ffffffff1602179055506101208201518160010160116101000a8154816001604060020a0302191690836001604060020a031602179055506101408201518160020190600019169055905050613d868a8a613f16565b50505050505050505050565b63ffffffff81565b6103e881565b6005805482908110613dae57fe5b60009182526020909120600590910201805460018201546002830154600384015460049094015463ffffffff80851696506001604060020a0364010000000086048116966c01000000000000000000000000870482169660a060020a810484169660c060020a820485169660e060020a9092049094169493909216928a565b600154600160a060020a031681565b6000806000613e4961586f565b84613e53816111bd565b1515613ea9576040805160e560020a62461bcd02815260206004820152600f60248201527f6964206973206e6f742076616c69640000000000000000000000000000000000604482015290519081900360640190fd5b6003805487908110613eb757fe5b6000918252602091829020604080516060810182529290910154600160a060020a03811680845260a060020a82046001604060020a031694840185905260e060020a90910463ffffffff16929091018290529891975095509350505050565b613f1e6158b3565b5063ffffffff80831660009081526020818152604080832085851684528252918290208251610160810184528154808616825264010000000081048616938201939093526001604060020a0368010000000000000000808504821695830195909552608060020a84048116606083015260c060020a90930485166080820152600182015480841660a083015260ff9481049490941660c0820181905269010000000000000000008504861660e0830152606860020a8504909516610100820152608860020a90930490911661012083015260020154610140820152906005148061402757508060c0015160ff16600314801561402757508060a001516001604060020a03164310155b151561407d576040805160e560020a62461bcd02815260206004820152601760248201527f6368616c6c656e6765206e6f7420636f6d706c65746564000000000000000000604482015290519081900360640190fd5b606460038463ffffffff1681548110151561409457fe5b9060005260206000200160000160148282829054906101000a90046001604060020a03160192506101000a8154816001604060020a0302191690836001604060020a0316021790555060008160e0019063ffffffff16908163ffffffff168152505060018160c0019060ff16908160ff168152505061012c43018160a001906001604060020a031690816001604060020a031681525050806000808563ffffffff1663ffffffff16815260200190815260200160002060008463ffffffff1663ffffffff16815260200190815260200160002060008201518160000160006101000a81548163ffffffff021916908363ffffffff16021790555060208201518160000160046101000a81548163ffffffff021916908363ffffffff16021790555060408201518160000160086101000a8154816001604060020a0302191690836001604060020a0316021790555060608201518160000160106101000a8154816001604060020a0302191690836001604060020a0316021790555060808201518160000160186101000a81548163ffffffff021916908363ffffffff16021790555060a08201518160010160006101000a8154816001604060020a0302191690836001604060020a0316021790555060c08201518160010160086101000a81548160ff021916908360ff16021790555060e08201518160010160096101000a81548163ffffffff021916908363ffffffff16021790555061010082015181600101600d6101000a81548163ffffffff021916908363ffffffff1602179055506101208201518160010160116101000a8154816001604060020a0302191690836001604060020a031602179055506101408201518160020190600019169055905050505050565b61012c81565b6143286158b3565b6143378463ffffffff166111bd565b15156143b3576040805160e560020a62461bcd02815260206004820152602360248201527f64656c6567617465206d75737420626520612076616c6964206163636f756e7460448201527f2069640000000000000000000000000000000000000000000000000000000000606482015290519081900360840190fd5b600380546064919063ffffffff85169081106143cb57fe5b60009182526020909120015460a060020a90046001604060020a0316101561443d576040805160e560020a62461bcd02815260206004820152601260248201527f6e6f7420656e6f7567682062616c616e63650000000000000000000000000000604482015290519081900360640190fd5b5063ffffffff8381166000908152602081815260408083208685168452825291829020825161016081018452815480861682526401000000008104861693820193909352680100000000000000008084046001604060020a0390811695830195909552608060020a84048516606083015260c060020a9093048516608082015260018083015480861660a084015293840460ff1660c0830181905269010000000000000000008504871660e0840152606860020a8504909616610100830152608860020a90930490931661012084015260020154610140830152909114614594576040805160e560020a62461bcd02815260206004820152602360248201527f736c6f74206973206e6f7420617661696c61626c6520666f72206368616c6c6560448201527f6e67650000000000000000000000000000000000000000000000000000000000606482015290519081900360840190fd5b60a08101516001604060020a031643106145e6576040805160e560020a62461bcd028152602060048201526019602482015260008051602061592e833981519152604482015290519081900360640190fd5b600260c082015263ffffffff821660e0820181905260644381016001604060020a031660a08401526003805491929091811061461e57fe5b6000918252602080832091909101805460008051602061594e833981519152811660a060020a918290046001604060020a0390811696909603861690910217905563ffffffff968716825281815260408083209688168352958152908590208351815492850151968501516060860151608087015163ffffffff19909516928a169290921767ffffffff000000001916640100000000988a1698909802979097176fffffffffffffffff000000000000000019166801000000000000000097851688021777ffffffffffffffff000000000000000000000000000000001916608060020a91851691909102177bffffffff000000000000000000000000000000000000000000000000191660c060020a9288169290920291909117815560a083015160018201805460c086015160e087015161010088015161012089015167ffffffffffffffff199094169588169590951768ff0000000000000000191660ff909216909902176cffffffff00000000000000000019166901000000000000000000988a16989098029790971770ffffffff000000000000000000000000001916606860020a92909816919091029690961778ffffffffffffffff00000000000000000000000000000000001916608860020a9590921694909402179093555061014090910151600290910155565b600081614819816111bd565b151561486f576040805160e560020a62461bcd02815260206004820152600f60248201527f6964206973206e6f742076616c69640000000000000000000000000000000000604482015290519081900360640190fd5b600380548490811061487d57fe5b60009182526020909120015460a060020a90046001604060020a03169392505050565b601481565b600080600080600c85518115156148b857fe5b600095500492506801000000000000000091508390505b828110156148f157600c810285016008015182900693909301926001016148cf565b505050919050565b6201000081565b60001981565b61490e6158b3565b61491d8363ffffffff16614f95565b1515614973576040805160e560020a62461bcd02815260206004820152601660248201527f6f6e6c792064656c65676174652063616e2063616c6c00000000000000000000604482015290519081900360640190fd5b5063ffffffff80831660009081526020818152604080832085851684528252918290208251610160810184528154808616825264010000000081048616938201939093526001604060020a0368010000000000000000808504821695830195909552608060020a84048116606083015260c060020a90930485166080820152600182015480841660a083015260ff9481049490941660c0820181905269010000000000000000008504861660e0830152606860020a8504909516610100820152608860020a90930490911661012083015260020154610140820152901515614a5a57614d40565b8060c0015160ff166001148015614a7e57508060a001516001604060020a03164310155b1515614ad4576040805160e560020a62461bcd02815260206004820152601260248201527f736c6f74206e6f7420617661696c61626c650000000000000000000000000000604482015290519081900360640190fd5b606481606001510160038463ffffffff16815481101515614af157fe5b600091825260209091200180546001604060020a0360a060020a80830482169094011690920260008051602061594e83398151915290921691909117905560608101516040820151608083015160038054939092039263ffffffff909116908110614b5857fe5b6000918252602080832091909101805460008051602061594e833981519152811660a060020a918290046001604060020a0390811696909601861690910217905560c0840182815263ffffffff878116845283835260408085208883168652845293849020865181549488015195880151606089015160808a015163ffffffff199097169285169290921767ffffffff00000000191664010000000097851697909702969096176fffffffffffffffff000000000000000019166801000000000000000096881687021777ffffffffffffffff000000000000000000000000000000001916608060020a91881691909102177bffffffff000000000000000000000000000000000000000000000000191660c060020a9483169490940293909317835560a0860151600184018054935160e08901516101008a01516101208b015167ffffffffffffffff19909716948a169490941768ff0000000000000000191660ff909216909702176cffffffff00000000000000000019166901000000000000000000968416969096029590951770ffffffff000000000000000000000000001916606860020a91909216021778ffffffffffffffff00000000000000000000000000000000001916608860020a91909416029290921790556101408201516002909101555b505050565b60008211614d9d576040805160e560020a62461bcd02815260206004820152601560248201527f43616e6e6f742072656769737465722030206964730000000000000000000000604482015290519081900360640190fd5b620100008210614e1d576040805160e560020a62461bcd02815260206004820152603160248201527f43616e6e6f742072656769737465722074686973206e756d626572206f66206960448201527f64732073696d756c74616e656f75736c79000000000000000000000000000000606482015290519081900360840190fd5b60035463ffffffff9083011115614e7e576040805160e560020a62461bcd02815260206004820152601f60248201527f43616e6e6f742072656769737465723a2072616e206f7574206f662069647300604482015290519081900360640190fd5b6040805160608101825282815263ffffffff848116602083019081526003805483169484019485526004805460018101825560009190915293517f8a35acfbc15ff81a39ae7d344fd709f28e8600b4aa8c65c6b64bfe7fe36bd19b60029095029485015590517f8a35acfbc15ff81a39ae7d344fd709f28e8600b4aa8c65c6b64bfe7fe36bd19c9093018054945163ffffffff199095169383169390931767ffffffff00000000191664010000000094909216939093021790558054830190614d40908261588f565b620186a081565b6003805482908110614f5c57fe5b600091825260209091200154600160a060020a038116915060a060020a81046001604060020a03169060e060020a900463ffffffff1683565b6000614fa0826111bd565b8015614fcd57506003805483908110614fb557fe5b600091825260209091200154600160a060020a031633145b92915050565b60045490565b600254600160a060020a031681565b614ff06158b3565b614fff8563ffffffff166111bd565b1515615055576040805160e560020a62461bcd02815260206004820152601d60248201527f64656c65676174652073686f756c6420626520612076616c6964206964000000604482015290519081900360640190fd5b5063ffffffff80851660009081526020818152604080832087851684528252918290208251610160810184528154808616825264010000000081048616938201939093526001604060020a0368010000000000000000808504821695830195909552608060020a84048116606083015260c060020a90930485166080820152600182015480841660a083015260ff9481049490941660c0820181905269010000000000000000008504861660e0830152606860020a8504909516610100820152608860020a909304909116610120830152600201546101408201529060031461513d57600080fd5b60a08101516001604060020a0316431061518f576040805160e560020a62461bcd028152602060048201526019602482015260008051602061592e833981519152604482015290519081900360640190fd5b6151a28160e0015163ffffffff16614f95565b151561521d576040805160e560020a62461bcd028152602060048201526024808201527f6f6e6c79206368616c6c656e6765722063616e2063616c6c206368616c6c656e60448201527f67655f3200000000000000000000000000000000000000000000000000000000606482015290519081900360840190fd5b826040518082805190602001908083835b6020831061524d5780518252601f19909201916020918201910161522e565b5181516020939093036101000a600019018019909116921691909117905260405192018290039091206101408501511492506152d6915050576040805160e560020a62461bcd02815260206004820152600d60248201527f64617461206d69736d6174636800000000000000000000000000000000000000604482015290519081900360640190fd5b63ffffffff9182166101008201908152600460c08301908152606443016001604060020a0390811660a085019081529785166000908152602081815260408083209988168352988152908890208551815492870151998701516060880151608089015163ffffffff19909516928a169290921767ffffffff0000000019166401000000009b8a169b909b029a909a176fffffffffffffffff00000000000000001916680100000000000000009a85168b021777ffffffffffffffff000000000000000000000000000000001916608060020a91851691909102177bffffffff000000000000000000000000000000000000000000000000191660c060020a928816929092029190911781559751600189018054935160e0870151955161012088015167ffffffffffffffff199096169385169390931768ff0000000000000000191660ff909116909902989098176cffffffff00000000000000000019166901000000000000000000948716949094029390931770ffffffff000000000000000000000000001916606860020a93909516929092029390931778ffffffffffffffff00000000000000000000000000000000001916608860020a939091169290920291909117909255506101400151600290910155565b600060606000806000806040805190810160405280601c81526020017f19457468657265756d205369676e6564204d6573736167653a0a333200000000815250945084886040516020018083805190602001908083835b602083106155235780518252601f199092019160209182019101615504565b51815160209384036101000a600019018019909216911617905292019384525060408051808503815293820190819052835193945092839250908401908083835b602083106155835780518252601f199092019160209182019101615564565b6001836020036101000a03801982511681845116808217855250505050505090500191505060405180910390209350865160411415156155c65760009550615678565b50505060208401516040850151606086015160001a601b60ff821610156155eb57601b015b8060ff16601b1415801561560357508060ff16601c14155b156156115760009550615678565b604080516000808252602080830180855288905260ff8516838501526060830187905260808301869052925160019360a0808501949193601f19840193928390039091019190865af115801561566b573d6000803e3d6000fd5b5050506020604051035195505b505050505092915050565b600080600080600085604051602001808281526020019150506040516020818303038152906040526040518082805190602001908083835b602083106156da5780518252601f1990920191602091820191016156bb565b6001836020036101000a03801982511681845116808217855250505050505090500191505060405180910390209350869250600091505b87518210156157835750600282049160011680151561575457875161574d9085908a908590811061573e57fe5b9060200190602002015161578f565b9350615778565b615775888381518110151561576557fe5b602090810290910101518561578f565b93505b600190910190615711565b50919695505050505050565b6000828260405160200180838152602001828152602001925050506040516020818303038152906040526040518082805190602001908083835b602083106157e85780518252601f1990920191602091820191016157c9565b5181516020939093036101000a600019018019909116921691909117905260405192018290039091209695505050505050565b6040805161014081018252600080825260208201819052918101829052606081018290526080810182905260a0810182905260c0810182905260e08101829052610100810182905261012081019190915290565b604080516060810182526000808252602082018190529181019190915290565b815481835581811115614d4057600083815260209020614d4091810190830161590f565b6040805161016081018252600080825260208201819052918101829052606081018290526080810182905260a0810182905260c0810182905260e081018290526101008101829052610120810182905261014081019190915290565b61130991905b808211156159295760008155600101615915565b509056006368616c6c656e67652074696d65206861732070617373656400000000000000ffffffff0000000000000000ffffffffffffffffffffffffffffffffffffffffa165627a7a723058208b26ec99ca2b00c6d1dd2f8c03e0119f85847d50666ffb71dee131c71c07e6220029",
  "source": "pragma solidity ^0.4.24;\nimport \"./IERC20.sol\";\nimport \"./Merkle.sol\";\n\ncontract BatPay {\n    uint constant public maxAccount = 2**32-1;\n    uint constant public maxBulk = 2**16;\n    uint constant public newAccount = 2**256-1; // special account id. It's NOT in the range of accounts\n    uint constant public maxBalance = 2**64-1;\n    uint constant public maxTransfer = 100000;\n    uint constant public unlockBlocks = 20; \n    uint constant public challengeBlocks = 300;     \n    uint constant public challengeStepBlocks = 100;\n    uint constant public maxCollect = 1000;\n    uint32 constant public instantSlot = 32768;\n    uint64 constant public collectBond = 100;\n    uint64 constant public challengeBond = 100;\n\n    struct Account {\n        address addr;\n        uint64  balance;\n        uint32  collected;\n    }\n\n    struct Payment {\n        uint32  from;\n        uint64  amount;\n        uint64  fee;\n        uint32  minId;  // ???: Use BulkRecordId instead??\n        uint32  maxId;\n        uint32  totalCount;\n        uint64  block;\n        bytes32 hash;\n        bytes32 lock;\n        bytes32 metadata;\n    }\n\n    struct BulkRecord {\n        bytes32 rootHash;\n        uint32  n;\n        uint32  minId;\n    }\n\n    struct CollectSlot {\n        uint32  minPayId;\n        uint32  maxPayId;\n        uint64  amount;\n        uint64  delegateAmount;\n        uint32  to;\n        uint64  block;\n        uint8   status;\n        uint32  challenger;\n        uint32  index;\n        uint64  challengeAmount;\n        bytes32 data;\n    }\n\n    mapping (uint32 => mapping (uint32 => CollectSlot)) collects;\n\n    address public owner;\n    IERC20 public token;\n    Account[] public accounts;\n    BulkRecord[] public bulkRegistrations;\n    Payment[] public payments;\n\n    function isValidId(uint id) public view returns (bool) {\n        return (id < accounts.length);\n    }\n\n    // TODO: rename this function to something more meaningful\n    function isOwnerId(uint id) public view returns (bool) {\n        return isValidId(id) && msg.sender == accounts[id].addr;\n    }\n\n    modifier validId(uint id) {\n        require(isValidId(id), \"id is not valid\");\n        _;\n    }\n\n    modifier onlyOwnerId(uint id) {\n        require(isOwnerId(id), \"Only owner can invoke this method\");\n        _;\n    }\n    \n    constructor(address _token) public {\n        owner = msg.sender;\n        token = IERC20(_token);\n    }\n\n    // Reserve n accounts but delay assigning addresses\n    // Accounts will be claimed later using MerkleTree's rootHash\n\n    function bulkRegister(uint256 n, bytes32 rootHash) public {\n        require(n > 0, \"Cannot register 0 ids\");\n        require(n < maxBulk, \"Cannot register this number of ids simultaneously\");\n        require(accounts.length + n <= maxAccount, \"Cannot register: ran out of ids\");\n\n        bulkRegistrations.push(BulkRecord(rootHash, uint32(n), uint32(accounts.length)));\n        accounts.length += n;\n    }\n\n    // Register a new account\n\n    function claimId(address addr, uint256[] proof, uint id, uint bulkId) public returns (bool) {\n        require(bulkId < bulkRegistrations.length, \"the bulkId referenced is invalid\");\n        uint minId = bulkRegistrations[bulkId].minId;\n        uint n = bulkRegistrations[bulkId].n;\n        bytes32 rootHash = bulkRegistrations[bulkId].rootHash;\n\n        // should be id - minId\n        bytes32 hash = Merkle.evalProof(proof, id, uint256(addr));\n        \n        require(id >= minId && id < minId+n, \"the id specified is not part of that bulk registration slot\");\n        require(hash == rootHash, \"invalid Merkle proof\");\n\n        accounts[id].addr = addr;\n\n        return true; // do we actually need to return a value?\n    }\n\n    function register() public returns (uint32 ret) {\n        require(accounts.length < maxAccount, \"no more accounts left\");\n        ret = (uint32)(accounts.length);\n        accounts.length += 1;\n        accounts[ret] = Account(msg.sender, 0, 0);\n\n        return ret;\n    } \n\n    // TODO: add v,r,s (signature from owner of id)\n    function withdraw(uint64 amount, uint256 id) \n    public\n    onlyOwnerId(id) \n    {    \n        address addr = accounts[id].addr;\n        uint64 balance = accounts[id].balance;\n\n        require(addr != 0, \"Id registration not completed. Use claimId() first\");\n        require(balance >= amount, \"insufficient funds\");\n        require(amount > 0, \"amount should be nonzero\");\n\n        require(msg.sender == addr, \"only owner can withdraw\");\n\n        balance -= amount;\n        accounts[id].balance = balance;\n\n        token.transfer(addr, amount);        \n    }\n\n    function deposit(uint64 amount, uint256 id) public {\n        require(id < accounts.length || id == newAccount, \"invalid id\");\n        require(amount > 0, \"amount should be positive\");\n        require(token.transferFrom(msg.sender, address(this), amount), \"transfer failed\");\n\n        if (id == newAccount)      \n        {   // new account\n            uint newId = register();\n            accounts[newId].balance = amount;\n        } else {  \n            // existing account\n            uint64 balance = accounts[id].balance;\n            uint64 newBalance = balance + amount;\n\n            // checking for overflow\n            require(balance <= newBalance, \"arithmetic overflow\"); \n\n            accounts[id].balance = newBalance;\n       }\n    }\n\n    function transfer(\n        uint32 fromId, \n        uint64 amount, \n        uint64 fee,\n        bytes payData, \n        uint newCount, \n        bytes32 roothash,\n        bytes32 lock,\n        bytes32 metadata) \n        public \n    {\n        Payment memory p;\n        p.from = fromId;\n        p.amount = amount;\n        p.fee = fee;\n        p.lock = lock;\n        p.block = uint64(block.number + unlockBlocks);\n        require(fromId < accounts.length, \"invalid fromId\");\n        uint bytesPerId = uint(payData[1]);\n        Account memory from = accounts[fromId];\n    \n        require(bytesPerId > 0, \"bytes per Id should be positive\");\n        require(from.addr == msg.sender, \"only owner of id can transfer\");\n        require((payData.length-2) % bytesPerId == 0, \"payData length is invalid\");\n\n        p.totalCount = uint32((payData.length-2) / bytesPerId + newCount);\n        require(p.totalCount < maxTransfer, \"too many payees\");\n        \n        uint64 total = uint64(amount * p.totalCount) + fee; // TODO: check for overflow\n        require (total <= from.balance, \"not enough funds\");\n\n        from.balance = from.balance - total;\n        accounts[fromId] = from;\n\n        p.minId = uint32(accounts.length);\n        p.maxId = uint32(p.minId + newCount);\n        p.metadata = metadata;\n        require(p.maxId >= p.minId && p.maxId <= maxAccount, \"invalid newCount\");\n        \n        if (newCount > 0) bulkRegister(newCount, roothash);\n        \n        p.hash = keccak256(abi.encodePacked(payData));\n\n        payments.push(p);\n    }\n\n    function unlock(uint32 payId, uint32 unlockerId, bytes key) public returns(bool) {\n        require(payId < payments.length, \"invalid payId\");\n        require(isValidId(unlockerId), \"Invalid unlockerId\");\n        require(block.number < payments[payId].block, \"Hash lock expired\");\n        bytes32 h = keccak256(abi.encodePacked(unlockerId, key));\n        require(h == payments[payId].lock, \"Invalid key\");\n        \n        payments[payId].lock = bytes32(0);\n        accounts[unlockerId].balance += payments[payId].fee;\n\n        return true;\n    }\n\n    function refund(uint payId) public returns (bool) {\n        require(payId < payments.length, \"invalid payment Id\");\n        require(payments[payId].lock != 0, \"payment is already unlocked\");\n        require(block.number >= payments[payId].block, \"Hash lock has not expired yet\");\n        \n        uint64 amount = payments[payId].amount;\n        uint32 totalCount = payments[payId].totalCount;\n        uint64 fee = payments[payId].fee;\n\n        require(totalCount > 0, \"payment already refunded\");\n        \n        uint64 total = totalCount * amount + fee;\n        uint from = payments[payId].from;\n\n        // Complete refund\n        payments[payId].totalCount = 0;\n        payments[payId].fee = 0;\n        accounts[from].balance += total;\n    }\n\n    \n    \n\n    function getDataSum(bytes data) public pure returns (uint sum) {\n        uint n = data.length / 12;\n        uint modulus = maxBalance+1;\n\n        sum = 0;\n\n        // Get the sum of the stated amounts in data \n        // Each entry in data is [8-bytes amount][4-bytes payId]\n\n        for(uint i = 0; i<n; i++) {\n            // solium-disable-next-line security/no-inline-assembly\n            assembly {\n                sum :=\n                    add(\n                        sum, \n                        mod(\n                            mload(add(data, add(8, mul(i, 12)))), \n                            modulus)\n                    )\n            }\n        }\n    }\n\n    function getDataAtIndex(bytes data, uint index) public pure returns (uint64 amount, uint32 payId) {\n        uint mod1 = maxBalance+1;\n        uint mod2 = maxAccount+1;\n        uint i = index*12;\n\n        require(i <= data.length-12);\n\n        // solium-disable-next-line security/no-inline-assembly\n        assembly\n            {\n                amount := mod(\n                    mload(add(data, add(8, i))), \n                    mod1)           \n\n                 payId := mod(\n                    mload(add(data, add(12, i))),\n                    mod2)\n            }\n    }\n\n\n    function challenge_1(uint32 delegate, uint32 slot, uint32 challenger) public {\n        require(isValidId(delegate), \"delegate must be a valid account id\");\n        require(accounts[challenger].balance >= challengeBond, \"not enough balance\");\n\n        CollectSlot memory s = collects[delegate][slot];\n \n        require(s.status == 1, \"slot is not available for challenge\");      \n        require (block.number < s.block, \"challenge time has passed\");\n        s.status = 2;\n        s.challenger = challenger;\n        s.block = uint64(block.number + challengeStepBlocks);\n\n        accounts[challenger].balance -= challengeBond;\n\n        collects[delegate][slot] = s;\n    }\n\n    function challenge_2(uint32 delegate, uint32 slot, bytes data) public {\n        require(isOwnerId(delegate), \"only delegate can call challenge_1\");\n\n        CollectSlot memory s = collects[delegate][slot];\n\n        require(s.status == 2, \"wrong slot status\");\n        require (block.number < s.block, \"challenge time has passed\");\n\n        require(data.length % 12 == 0, \"wrong data format\");\n        require (getDataSum(data) == s.amount, \"data doesn't represent collected amount\");\n\n        s.data = keccak256(data);\n        s.status = 3;\n        s.block = uint64(block.number + challengeStepBlocks);\n\n        collects[delegate][slot] = s;\n    }\n\n\n    function challenge_3(uint32 delegate, uint32 slot, bytes data, uint32 index) public {\n        require(isValidId(delegate), \"delegate should be a valid id\");\n        CollectSlot memory s = collects[delegate][slot];\n        \n        require(s.status == 3);\n        require (block.number < s.block, \"challenge time has passed\");\n        require(isOwnerId(s.challenger), \"only challenger can call challenge_2\");\n     \n        \n        require(s.data == keccak256(data), \"data mismatch\");\n       \n        s.index = index;\n        s.status = 4;\n        s.block = uint64(block.number + challengeStepBlocks);\n\n        collects[delegate][slot] = s;\n    }\n\n    function challenge_4(uint32 delegate, uint32 slot, bytes payData) public {\n        require(isOwnerId(delegate), \"only delegate can call challenge_3\");\n\n        CollectSlot memory s = collects[delegate][slot];\n        Payment memory p = payments[s.index];\n\n        require(s.status == 4);\n        require(block.number < s.block, \"challenge time has passed\");\n        require(s.index >= s.minPayId && s.index < s.maxPayId, \"payment referenced is out of range\");\n\n        require(keccak256(payData) == p.hash, \"payData is incorrect\");\n        \n        uint bytesPerId = uint(payData[1]);\n        uint modulus = 1 << (8*bytesPerId);\n\n        uint id = 0;\n        uint collected = 0;\n\n        // Check if id is included in bulkRegistration within payment\n        if (s.to >= p.minId && s.to < p.maxId) collected += p.amount;\n\n        // Process payData, inspecting the list of ids\n        // payData includes 2 header bytes, followed by n bytesPerId-bytes entries\n        // [byte 0xff][byte bytesPerId][delta 0][delta 1]..[delta n-1]\n        for(uint i = 2; i < payData.length; i += bytesPerId) {\n            // Get next id delta from paydata \n            // id += payData[2+i*bytesPerId]\n\n            // solium-disable-next-line security/no-inline-assembly\n            assembly {\n                id := add(\n                    id, \n                    mod(\n                        mload(add(payData,add(i,bytesPerId))),\n                        modulus))\n            }\n            if (id == s.to) {\n                collected += p.amount;\n            }\n        }\n\n        require(collected == s.challengeAmount, \"amount mismatch\");\n\n        s.status = 5;\n        collects[delegate][slot] = s;\n\n        challenge_failed(delegate, slot);\n    }\n\n    function challenge_success(uint32 delegate, uint32 slot) public {\n        CollectSlot memory s = collects[delegate][slot];\n        require((s.status == 2 || s.status == 4) && block.number >= s.block, \"challenge not finished\");\n\n        accounts[s.challenger].balance += collectBond;\n\n        collects[delegate][slot].status = 0;\n        \n    }\n\n    function challenge_failed(uint32 delegate, uint32 slot) public {\n        CollectSlot memory s = collects[delegate][slot];\n        require(s.status == 5 || (s.status == 3 && block.number >= s.block), \"challenge not completed\");\n\n        // Challenge failed\n        // delegate wins bond\n        accounts[delegate].balance += challengeBond;\n\n        // reset slot to status=1, waiting for challenges\n        s.challenger = 0;\n        s.status = 1;\n        s.block = uint64(block.number + challengeBlocks);\n        collects[delegate][slot] = s;\n    }\n\n    function recoverHelper(bytes32 hash, bytes _sig) internal pure returns (address) {\n        bytes memory prefix = \"\\x19Ethereum Signed Message:\\n32\";\n        bytes32 prefixedHash = keccak256(abi.encodePacked(prefix, hash));\n\n        bytes32 r;\n        bytes32 s;\n        uint8 v;\n\n        // Check the signature length\n        if (_sig.length != 65) {\n            return (address(0));\n        }\n\n        // Divide the signature in r, s and v variables\n        // ecrecover takes the signature parameters, and the only way to get them\n        // currently is to use assembly.\n        // solium-disable-next-line security/no-inline-assembly\n        assembly {\n        r := mload(add(_sig, 32))\n        s := mload(add(_sig, 64))\n        v := byte(0, mload(add(_sig, 96)))\n        }\n\n        // Version of signature should be 27 or 28, but 0 and 1 are also possible versions\n        if (v < 27) {\n            v += 27;\n        }\n\n        // If the version is correct return the signer address\n        if (v != 27 && v != 28) {\n            return address(0);\n        }\n\n        return ecrecover(prefixedHash, v, r, s);\n        \n    }\n\n    function freeSlot(uint32 delegate, uint32 slot) public {\n        require(isOwnerId(delegate), \"only delegate can call\");\n\n        CollectSlot memory s = collects[delegate][slot];\n\n        if (s.status == 0) return;\n\n        require (s.status == 1 && block.number >= s.block, \"slot not available\"); \n    \n        // Refund bond \n        accounts[delegate].balance += s.delegateAmount + collectBond;\n        accounts[s.to].balance += s.amount - s.delegateAmount;\n        s.status = 0;\n        collects[delegate][slot] = s;\n    }\n    \n    function collect(\n        uint32 delegate,\n        uint32 slot,\n        uint32 toId, \n        uint32 toPayId,\n        uint64 amount,\n        uint64 fee, \n        bytes signature\n        ) \n        public\n        \n    {\n        // Check delegate is valid\n        require(delegate < accounts.length, \"delegate must be a valid account id\");\n        Account memory acc = accounts[delegate];\n        require(acc.addr != 0, \"account registration has be to completed for delegate\");\n        require(acc.addr == msg.sender, \"only delegate can initiate collect\");\n        \n        // Check toId is valid\n        require(toId <= accounts.length, \"toId must be a valid account id\");\n\n        Account memory tacc = accounts[toId];\n        require(tacc.addr != 0, \"account registration has to be completed\");\n\n        // Check toPayId is valid\n        require(toPayId > 0 && toPayId <= payments.length, \"invalid toPayId\");\n        require(toPayId > tacc.collected, \"toPayId is not a valid value\");\n        require(payments[toPayId-1].block < block.number, \"cannot collect payments that can be unlocked\");\n\n        // Check if fee is valid\n        require (fee <= amount, \"fee is too big\");\n\n        // Check that toId signed this transaction\n        bytes32 hash = keccak256(abi.encodePacked(delegate, toId, tacc.collected, toPayId, amount, fee)); \n        address addr = recoverHelper(hash, signature);\n        require(addr == tacc.addr, \"Bad user signature\");\n       \n        // free slot if necessary\n        freeSlot(delegate, slot);\n\n        CollectSlot memory sl;\n        sl.minPayId = tacc.collected;\n        sl.maxPayId = toPayId;\n\n        uint64 needed = collectBond;\n        // check if this is an instant collect\n        if (slot >= instantSlot) {\n            sl.delegateAmount = amount;\n            tacc.balance += uint64(amount-fee);\n            needed += amount-fee;\n        } else\n        {\n            sl.delegateAmount = fee;\n        }    \n\n        // Check amount & balance\n        require (acc.balance >= needed, \"not enough funds\");\n\n        acc.balance -= needed;\n        accounts[delegate] = acc;\n        \n        sl.amount = amount;\n        sl.to = toId;\n        sl.block = uint64(block.number + challengeBlocks);\n        sl.status = 1;\n        collects[delegate][slot] = sl;\n     \n        \n        tacc.collected = uint32(toPayId);\n        accounts[toId] = tacc;\n    }\n\n    function accountOf(uint id) public view validId(id) returns (address addr, uint64 balance, uint32 collected) {\n        Account memory a = accounts[id];\n        addr = a.addr;\n        balance = a.balance;\n        collected = a.collected;\n    }\n\n    function balanceOf(uint id) public view validId(id) returns (uint64) {\n        return accounts[id].balance;\n    }\n\n    function accountsLength() public view returns (uint) {\n        return accounts.length;\n    }\n\n    function paymentsLength() public view returns (uint) {\n        return payments.length;\n    }\n\n    function bulkLength() public view returns (uint) {\n        return bulkRegistrations.length;\n    }\n\n}",
  "sourcePath": "/Users/grandata/work/BatchPayments/contracts/BatPay.sol",
  "compiler": {
    "name": "solc",
    "version": "0.4.24+commit.e67f0147.Emscripten.clang"
  },
  "schemaVersion": "2.0.0",
  "updatedAt": "2019-01-18T20:56:14.365Z"
}